{
  "_format": "hh-sol-artifact-1",
  "contractName": "FoodSystemUpgradeableV2",
  "sourceName": "contracts/upgradeable/FoodSystemUpgradeableV2.sol",
  "abi": [
    {
      "anonymous": false,
      "inputs": [
        {
          "indexed": false,
          "internalType": "address",
          "name": "gemToken",
          "type": "address"
        },
        {
          "indexed": false,
          "internalType": "address",
          "name": "stakingContract",
          "type": "address"
        },
        {
          "indexed": false,
          "internalType": "address",
          "name": "miningExpedition",
          "type": "address"
        }
      ],
      "name": "ContractAddressesUpdated",
      "type": "event"
    },
    {
      "anonymous": false,
      "inputs": [],
      "name": "DiscountPeriodEnded",
      "type": "event"
    },
    {
      "anonymous": false,
      "inputs": [
        {
          "indexed": false,
          "internalType": "uint8",
          "name": "version",
          "type": "uint8"
        }
      ],
      "name": "Initialized",
      "type": "event"
    },
    {
      "anonymous": false,
      "inputs": [
        {
          "indexed": true,
          "internalType": "uint256",
          "name": "mealId",
          "type": "uint256"
        },
        {
          "indexed": false,
          "internalType": "string",
          "name": "name",
          "type": "string"
        },
        {
          "indexed": false,
          "internalType": "uint256",
          "name": "successRate",
          "type": "uint256"
        },
        {
          "indexed": false,
          "internalType": "uint256",
          "name": "originalPrice",
          "type": "uint256"
        },
        {
          "indexed": false,
          "internalType": "uint256",
          "name": "discountedPrice",
          "type": "uint256"
        }
      ],
      "name": "MealAdded",
      "type": "event"
    },
    {
      "anonymous": false,
      "inputs": [
        {
          "indexed": true,
          "internalType": "address",
          "name": "buyer",
          "type": "address"
        },
        {
          "indexed": true,
          "internalType": "uint256",
          "name": "minerId",
          "type": "uint256"
        },
        {
          "indexed": true,
          "internalType": "uint256",
          "name": "mealId",
          "type": "uint256"
        },
        {
          "indexed": false,
          "internalType": "uint256",
          "name": "price",
          "type": "uint256"
        },
        {
          "indexed": false,
          "internalType": "uint256",
          "name": "timestamp",
          "type": "uint256"
        }
      ],
      "name": "MealPurchased",
      "type": "event"
    },
    {
      "anonymous": false,
      "inputs": [
        {
          "indexed": true,
          "internalType": "uint256",
          "name": "mealId",
          "type": "uint256"
        },
        {
          "indexed": false,
          "internalType": "string",
          "name": "name",
          "type": "string"
        },
        {
          "indexed": false,
          "internalType": "uint256",
          "name": "successRate",
          "type": "uint256"
        },
        {
          "indexed": false,
          "internalType": "uint256",
          "name": "originalPrice",
          "type": "uint256"
        },
        {
          "indexed": false,
          "internalType": "uint256",
          "name": "discountedPrice",
          "type": "uint256"
        }
      ],
      "name": "MealUpdated",
      "type": "event"
    },
    {
      "anonymous": false,
      "inputs": [
        {
          "indexed": true,
          "internalType": "address",
          "name": "previousOwner",
          "type": "address"
        },
        {
          "indexed": true,
          "internalType": "address",
          "name": "newOwner",
          "type": "address"
        }
      ],
      "name": "OwnershipTransferred",
      "type": "event"
    },
    {
      "inputs": [],
      "name": "MEAL_COOLDOWN",
      "outputs": [
        {
          "internalType": "uint256",
          "name": "",
          "type": "uint256"
        }
      ],
      "stateMutability": "view",
      "type": "function"
    },
    {
      "inputs": [
        {
          "internalType": "string",
          "name": "name",
          "type": "string"
        },
        {
          "internalType": "uint256",
          "name": "successRate",
          "type": "uint256"
        },
        {
          "internalType": "uint256",
          "name": "minReward",
          "type": "uint256"
        },
        {
          "internalType": "uint256",
          "name": "maxReward",
          "type": "uint256"
        },
        {
          "internalType": "uint256",
          "name": "originalPrice",
          "type": "uint256"
        },
        {
          "internalType": "uint256",
          "name": "discountedPrice",
          "type": "uint256"
        }
      ],
      "name": "addMeal",
      "outputs": [],
      "stateMutability": "nonpayable",
      "type": "function"
    },
    {
      "inputs": [
        {
          "internalType": "uint256[]",
          "name": "minerIds",
          "type": "uint256[]"
        }
      ],
      "name": "adminClearActiveMeals",
      "outputs": [],
      "stateMutability": "nonpayable",
      "type": "function"
    },
    {
      "inputs": [
        {
          "internalType": "uint256",
          "name": "minerId",
          "type": "uint256"
        },
        {
          "internalType": "uint256",
          "name": "mealId",
          "type": "uint256"
        }
      ],
      "name": "buyMeal",
      "outputs": [],
      "stateMutability": "nonpayable",
      "type": "function"
    },
    {
      "inputs": [
        {
          "internalType": "address",
          "name": "user",
          "type": "address"
        },
        {
          "internalType": "uint256",
          "name": "minerId",
          "type": "uint256"
        },
        {
          "internalType": "uint256",
          "name": "mealId",
          "type": "uint256"
        }
      ],
      "name": "buyMealForUser",
      "outputs": [],
      "stateMutability": "nonpayable",
      "type": "function"
    },
    {
      "inputs": [
        {
          "internalType": "uint256",
          "name": "minerId",
          "type": "uint256"
        },
        {
          "internalType": "uint256",
          "name": "mealId",
          "type": "uint256"
        }
      ],
      "name": "canEatMeal",
      "outputs": [
        {
          "internalType": "bool",
          "name": "canEat",
          "type": "bool"
        },
        {
          "internalType": "uint256",
          "name": "timeUntilAvailable",
          "type": "uint256"
        }
      ],
      "stateMutability": "view",
      "type": "function"
    },
    {
      "inputs": [
        {
          "internalType": "uint256",
          "name": "minerId",
          "type": "uint256"
        }
      ],
      "name": "clearActiveMeal",
      "outputs": [],
      "stateMutability": "nonpayable",
      "type": "function"
    },
    {
      "inputs": [],
      "name": "discountActive",
      "outputs": [
        {
          "internalType": "bool",
          "name": "",
          "type": "bool"
        }
      ],
      "stateMutability": "view",
      "type": "function"
    },
    {
      "inputs": [],
      "name": "discountEndTime",
      "outputs": [
        {
          "internalType": "uint256",
          "name": "",
          "type": "uint256"
        }
      ],
      "stateMutability": "view",
      "type": "function"
    },
    {
      "inputs": [],
      "name": "endDiscountPeriod",
      "outputs": [],
      "stateMutability": "nonpayable",
      "type": "function"
    },
    {
      "inputs": [],
      "name": "gemTokenAddress",
      "outputs": [
        {
          "internalType": "address",
          "name": "",
          "type": "address"
        }
      ],
      "stateMutability": "view",
      "type": "function"
    },
    {
      "inputs": [],
      "name": "getAllMeals",
      "outputs": [
        {
          "internalType": "string[]",
          "name": "names",
          "type": "string[]"
        },
        {
          "internalType": "uint256[]",
          "name": "successRates",
          "type": "uint256[]"
        },
        {
          "internalType": "uint256[]",
          "name": "minRewards",
          "type": "uint256[]"
        },
        {
          "internalType": "uint256[]",
          "name": "maxRewards",
          "type": "uint256[]"
        },
        {
          "internalType": "uint256[]",
          "name": "currentPrices",
          "type": "uint256[]"
        },
        {
          "internalType": "bool[]",
          "name": "actives",
          "type": "bool[]"
        }
      ],
      "stateMutability": "view",
      "type": "function"
    },
    {
      "inputs": [
        {
          "internalType": "uint256",
          "name": "mealId",
          "type": "uint256"
        }
      ],
      "name": "getCurrentMealPrice",
      "outputs": [
        {
          "internalType": "uint256",
          "name": "",
          "type": "uint256"
        }
      ],
      "stateMutability": "view",
      "type": "function"
    },
    {
      "inputs": [],
      "name": "getDiscountInfo",
      "outputs": [
        {
          "internalType": "bool",
          "name": "isActive",
          "type": "bool"
        },
        {
          "internalType": "uint256",
          "name": "endTime",
          "type": "uint256"
        },
        {
          "internalType": "uint256",
          "name": "timeRemaining",
          "type": "uint256"
        }
      ],
      "stateMutability": "view",
      "type": "function"
    },
    {
      "inputs": [],
      "name": "getMealCount",
      "outputs": [
        {
          "internalType": "uint256",
          "name": "",
          "type": "uint256"
        }
      ],
      "stateMutability": "view",
      "type": "function"
    },
    {
      "inputs": [
        {
          "internalType": "uint256",
          "name": "minerId",
          "type": "uint256"
        }
      ],
      "name": "getMinerMealAvailability",
      "outputs": [
        {
          "internalType": "bool[]",
          "name": "availabilities",
          "type": "bool[]"
        },
        {
          "internalType": "uint256[]",
          "name": "cooldowns",
          "type": "uint256[]"
        }
      ],
      "stateMutability": "view",
      "type": "function"
    },
    {
      "inputs": [
        {
          "internalType": "uint256",
          "name": "minerId",
          "type": "uint256"
        }
      ],
      "name": "getMinerMealStatus",
      "outputs": [
        {
          "internalType": "uint256",
          "name": "mealId",
          "type": "uint256"
        },
        {
          "internalType": "uint256",
          "name": "timestamp",
          "type": "uint256"
        },
        {
          "internalType": "uint256",
          "name": "successRate",
          "type": "uint256"
        },
        {
          "internalType": "uint256",
          "name": "minReward",
          "type": "uint256"
        },
        {
          "internalType": "uint256",
          "name": "maxReward",
          "type": "uint256"
        }
      ],
      "stateMutability": "view",
      "type": "function"
    },
    {
      "inputs": [
        {
          "internalType": "address",
          "name": "_gemTokenAddress",
          "type": "address"
        },
        {
          "internalType": "address",
          "name": "_stakingContractAddress",
          "type": "address"
        }
      ],
      "name": "initialize",
      "outputs": [],
      "stateMutability": "nonpayable",
      "type": "function"
    },
    {
      "inputs": [
        {
          "internalType": "uint256",
          "name": "",
          "type": "uint256"
        }
      ],
      "name": "lastMealId",
      "outputs": [
        {
          "internalType": "uint256",
          "name": "",
          "type": "uint256"
        }
      ],
      "stateMutability": "view",
      "type": "function"
    },
    {
      "inputs": [
        {
          "internalType": "uint256",
          "name": "",
          "type": "uint256"
        }
      ],
      "name": "meals",
      "outputs": [
        {
          "internalType": "string",
          "name": "name",
          "type": "string"
        },
        {
          "internalType": "uint256",
          "name": "successRate",
          "type": "uint256"
        },
        {
          "internalType": "uint256",
          "name": "minReward",
          "type": "uint256"
        },
        {
          "internalType": "uint256",
          "name": "maxReward",
          "type": "uint256"
        },
        {
          "internalType": "uint256",
          "name": "originalPrice",
          "type": "uint256"
        },
        {
          "internalType": "uint256",
          "name": "discountedPrice",
          "type": "uint256"
        },
        {
          "internalType": "bool",
          "name": "active",
          "type": "bool"
        }
      ],
      "stateMutability": "view",
      "type": "function"
    },
    {
      "inputs": [
        {
          "internalType": "uint256",
          "name": "",
          "type": "uint256"
        },
        {
          "internalType": "uint256",
          "name": "",
          "type": "uint256"
        }
      ],
      "name": "minerMealConsumption",
      "outputs": [
        {
          "internalType": "uint256",
          "name": "",
          "type": "uint256"
        }
      ],
      "stateMutability": "view",
      "type": "function"
    },
    {
      "inputs": [],
      "name": "miningExpeditionAddress",
      "outputs": [
        {
          "internalType": "address",
          "name": "",
          "type": "address"
        }
      ],
      "stateMutability": "view",
      "type": "function"
    },
    {
      "inputs": [],
      "name": "owner",
      "outputs": [
        {
          "internalType": "address",
          "name": "",
          "type": "address"
        }
      ],
      "stateMutability": "view",
      "type": "function"
    },
    {
      "inputs": [],
      "name": "renounceOwnership",
      "outputs": [],
      "stateMutability": "nonpayable",
      "type": "function"
    },
    {
      "inputs": [],
      "name": "rewardSpendingInterfaceAddress",
      "outputs": [
        {
          "internalType": "address",
          "name": "",
          "type": "address"
        }
      ],
      "stateMutability": "view",
      "type": "function"
    },
    {
      "inputs": [
        {
          "internalType": "address",
          "name": "_miningExpeditionAddress",
          "type": "address"
        }
      ],
      "name": "setMiningExpeditionAddress",
      "outputs": [],
      "stateMutability": "nonpayable",
      "type": "function"
    },
    {
      "inputs": [
        {
          "internalType": "address",
          "name": "_rewardSpendingInterfaceAddress",
          "type": "address"
        }
      ],
      "name": "setRewardSpendingInterfaceAddress",
      "outputs": [],
      "stateMutability": "nonpayable",
      "type": "function"
    },
    {
      "inputs": [],
      "name": "stakingContractAddress",
      "outputs": [
        {
          "internalType": "address",
          "name": "",
          "type": "address"
        }
      ],
      "stateMutability": "view",
      "type": "function"
    },
    {
      "inputs": [
        {
          "internalType": "address",
          "name": "newOwner",
          "type": "address"
        }
      ],
      "name": "transferOwnership",
      "outputs": [],
      "stateMutability": "nonpayable",
      "type": "function"
    },
    {
      "inputs": [
        {
          "internalType": "address",
          "name": "_gemTokenAddress",
          "type": "address"
        },
        {
          "internalType": "address",
          "name": "_stakingContractAddress",
          "type": "address"
        }
      ],
      "name": "updateContractAddresses",
      "outputs": [],
      "stateMutability": "nonpayable",
      "type": "function"
    },
    {
      "inputs": [
        {
          "internalType": "uint256",
          "name": "mealId",
          "type": "uint256"
        },
        {
          "internalType": "string",
          "name": "name",
          "type": "string"
        },
        {
          "internalType": "uint256",
          "name": "successRate",
          "type": "uint256"
        },
        {
          "internalType": "uint256",
          "name": "minReward",
          "type": "uint256"
        },
        {
          "internalType": "uint256",
          "name": "maxReward",
          "type": "uint256"
        },
        {
          "internalType": "uint256",
          "name": "originalPrice",
          "type": "uint256"
        },
        {
          "internalType": "uint256",
          "name": "discountedPrice",
          "type": "uint256"
        },
        {
          "internalType": "bool",
          "name": "active",
          "type": "bool"
        }
      ],
      "name": "updateMeal",
      "outputs": [],
      "stateMutability": "nonpayable",
      "type": "function"
    },
    {
      "stateMutability": "payable",
      "type": "receive"
    }
  ],
  "bytecode": "0x608060405234801561001057600080fd5b50613854806100206000396000f3fe6080604052600436106101dc5760003560e01c8063715018a611610102578063b82997a511610095578063d8337b1d11610064578063d8337b1d146105dd578063ea0c7fd9146105fd578063f2fde38b1461062b578063fc41be501461064b57600080fd5b8063b82997a514610569578063bc1a31b01461057e578063cbc70d411461059e578063d4f692bf146105c857600080fd5b8063996fb1af116100d1578063996fb1af146104eb57806399f33fe51461050b578063aeb2546d14610522578063b3cb87b21461054257600080fd5b8063715018a61461046b57806373e2cc07146104805780637755a5bd146104ad5780638da5cb5b146104cd57600080fd5b80633535f48b1161017a5780635c6c123e116101495780635c6c123e146103825780636118193a146103b9578063640fbadb146104015780636df9667a1461043957600080fd5b80633535f48b146102ea57806336d5563214610322578063485cc955146103425780634bc0d02b1461036257600080fd5b8063255622ad116101b6578063255622ad1461024a5780632a261e971461026a5780632d1d646e146102a657806334810336146102c657600080fd5b80630cdffa8e146101e85780630de09f0c1461020a5780631ff6dc5b1461022a57600080fd5b366101e357005b600080fd5b3480156101f457600080fd5b506102086102033660046130c8565b61066b565b005b34801561021657600080fd5b50610208610225366004613153565b61084f565b34801561023657600080fd5b506102086102453660046131e3565b6108ab565b34801561025657600080fd5b50610208610265366004613216565b6109d4565b34801561027657600080fd5b5061028a61028536600461327a565b610be1565b60405161029d97969594939291906132e3565b60405180910390f35b3480156102b257600080fd5b506102086102c136600461327a565b610cc1565b3480156102d257600080fd5b506102dc609a5481565b60405190815260200161029d565b3480156102f657600080fd5b5060985461030a906001600160a01b031681565b6040516001600160a01b03909116815260200161029d565b34801561032e57600080fd5b5061020861033d366004613329565b610d1b565b34801561034e57600080fd5b5061020861035d3660046131e3565b611005565b34801561036e57600080fd5b5061020861037d36600461335c565b61117d565b34801561038e57600080fd5b506103a261039d366004613377565b611242565b60408051921515835260208301919091520161029d565b3480156103c557600080fd5b506103d96103d436600461327a565b6112c0565b604080519586526020860194909452928401919091526060830152608082015260a00161029d565b34801561040d57600080fd5b506102dc61041c366004613377565b609d60209081526000928352604080842090915290825290205481565b34801561044557600080fd5b5061044e61142e565b60408051931515845260208401929092529082015260600161029d565b34801561047757600080fd5b50610208611470565b34801561048c57600080fd5b506102dc61049b36600461327a565b609e6020526000908152604090205481565b3480156104b957600080fd5b506102dc6104c836600461327a565b611484565b3480156104d957600080fd5b506033546001600160a01b031661030a565b3480156104f757600080fd5b5060995461030a906001600160a01b031681565b34801561051757600080fd5b506102dc6201518081565b34801561052e57600080fd5b5061020861053d36600461335c565b611518565b34801561054e57600080fd5b50610557611583565b60405161029d96959493929190613406565b34801561057557600080fd5b5061020861193e565b34801561058a57600080fd5b5060975461030a906001600160a01b031681565b3480156105aa57600080fd5b50609b546105b89060ff1681565b604051901515815260200161029d565b3480156105d457600080fd5b50609c546102dc565b3480156105e957600080fd5b506102086105f8366004613377565b6119cd565b34801561060957600080fd5b5061061d61061836600461327a565b611c87565b60405161029d9291906134d0565b34801561063757600080fd5b5061020861064636600461335c565b611e07565b34801561065757600080fd5b50609f5461030a906001600160a01b031681565b610673611e80565b609c54881061069d5760405162461bcd60e51b8152600401610694906134fe565b60405180910390fd5b60648611156106ee5760405162461bcd60e51b815260206004820152601b60248201527f537563636573732072617465206d757374206265203c3d2031303000000000006044820152606401610694565b8385111561073e5760405162461bcd60e51b815260206004820181905260248201527f4d696e20726577617264206d757374206265203c3d206d6178207265776172646044820152606401610694565b8282111561075e5760405162461bcd60e51b81526004016106949061352b565b6000609c89815481106107735761077361356f565b600091825260209091206007909102019050806107908982613607565b50600181018790556107aa86670de0b6b3a76400006136dc565b60028201556107c185670de0b6b3a76400006136dc565b60038201556107d884670de0b6b3a76400006136dc565b60048201556107ef83670de0b6b3a76400006136dc565b600582015560068101805460ff191683151517905560405189907f10ffb64a0a49284c38e24ef8bf26545b5a09ef154ee7c54048db56eed72ba8169061083c908b908b90899089906136f9565b60405180910390a2505050505050505050565b610857611e80565b60005b818110156108a6576000609e600085858581811061087a5761087a61356f565b90506020020135815260200190815260200160002081905550808061089e90613728565b91505061085a565b505050565b6108b3611e80565b6001600160a01b0382166109095760405162461bcd60e51b815260206004820152601960248201527f496e76616c69642047454d20746f6b656e2061646472657373000000000000006044820152606401610694565b6001600160a01b03811661095f5760405162461bcd60e51b815260206004820152601760248201527f496e76616c6964207374616b696e6720616464726573730000000000000000006044820152606401610694565b609780546001600160a01b038481166001600160a01b031992831681179093556098805485831693168317905560995460408051948552602085019390935216908201527f7e2c0d8beb1685de4b90e5d612dc3e1fcb8147b9dd5d8f5573eb699055a32db99060600160405180910390a15050565b6109dc611e80565b6064851115610a2d5760405162461bcd60e51b815260206004820152601b60248201527f537563636573732072617465206d757374206265203c3d2031303000000000006044820152606401610694565b82841115610a7d5760405162461bcd60e51b815260206004820181905260248201527f4d696e20726577617264206d757374206265203c3d206d6178207265776172646044820152606401610694565b81811115610a9d5760405162461bcd60e51b81526004016106949061352b565b609c6040518060e0016040528088815260200187815260200186670de0b6b3a7640000610aca91906136dc565b8152602001610ae186670de0b6b3a76400006136dc565b8152602001610af885670de0b6b3a76400006136dc565b8152602001610b0f84670de0b6b3a76400006136dc565b81526001602091820181905283549081018455600093845292208151919260070201908190610b3e9082613607565b50602082015160018281019190915560408301516002830155606083015160038301556080830151600483015560a0830151600583015560c0909201516006909101805460ff1916911515919091179055609c54610b9c9190613741565b7f8579750635279165d3493c24abaa34ef1184a709659227ce56eac599c4c0729387878585604051610bd194939291906136f9565b60405180910390a2505050505050565b609c8181548110610bf157600080fd5b9060005260206000209060070201600091509050806000018054610c1490613585565b80601f0160208091040260200160405190810160405280929190818152602001828054610c4090613585565b8015610c8d5780601f10610c6257610100808354040283529160200191610c8d565b820191906000526020600020905b815481529060010190602001808311610c7057829003601f168201915b5050506001840154600285015460038601546004870154600588015460069098015496979396929550909350919060ff1687565b6099546001600160a01b03163314610d0a5760405162461bcd60e51b815260206004820152600c60248201526b155b985d5d1a1bdc9a5e995960a21b6044820152606401610694565b6000908152609e6020526040812055565b610d23611eda565b6033546001600160a01b0316331480610d465750609f546001600160a01b031633145b610d815760405162461bcd60e51b815260206004820152600c60248201526b155b985d5d1a1bdc9a5e995960a21b6044820152606401610694565b609c548110610da25760405162461bcd60e51b8152600401610694906134fe565b609c8181548110610db557610db561356f565b600091825260209091206006600790920201015460ff16610e0d5760405162461bcd60e51b81526020600482015260126024820152714d65616c206973206e6f742061637469766560701b6044820152606401610694565b60985460405163943a894160e01b81526001600160a01b0385811660048301526024820185905290911690819063943a894190604401602060405180830381865afa158015610e60573d6000803e3d6000fd5b505050506040513d601f19601f82011682018060405250810190610e849190613754565b610ec15760405162461bcd60e51b815260206004820152600e60248201526d2737ba103cb7bab91036b4b732b960911b6044820152606401610694565b6000838152609d60209081526040808320858452909152902054610ee86201518082613771565b421015610f295760405162461bcd60e51b815260206004820152600f60248201526e436f6f6c646f776e2061637469766560881b6044820152606401610694565b6000848152609d602090815260408083208684528252808320429055868352609e9091528120849055610f5b84611484565b90508385876001600160a01b03167fb3d5aeebf6e91c649147985cbb3793281f54229b264bb5b356e1a2a315a280bc8442604051610fa3929190918252602082015260400190565b60405180910390a4609b5460ff168015610fbf5750609a544210155b15610ff857609b805460ff191690556040517f7b77c0a626b0049ced3a27b058f3c0488685d6c7655e61edad24963a03ec51db90600090a15b5050506108a66001606555565b600054610100900460ff16158080156110255750600054600160ff909116105b8061103f5750303b15801561103f575060005460ff166001145b6110a25760405162461bcd60e51b815260206004820152602e60248201527f496e697469616c697a61626c653a20636f6e747261637420697320616c72656160448201526d191e481a5b9a5d1a585b1a5e995960921b6064820152608401610694565b6000805460ff1916600117905580156110c5576000805461ff0019166101001790555b6110cd611f3a565b6110d633611f69565b6110de611fbb565b609780546001600160a01b038086166001600160a01b031992831617909255609880549285169290911691909117905561111b426203f480613771565b609a55609b805460ff19166001179055611133611fea565b80156108a6576000805461ff0019169055604051600181527f7f26b83ff96e1f2b6a682f133852f6798a09c465da95921460cefb38474024989060200160405180910390a1505050565b611185611e80565b6001600160a01b0381166111cd5760405162461bcd60e51b815260206004820152600f60248201526e496e76616c6964206164647265737360881b6044820152606401610694565b609f80546001600160a01b0319166001600160a01b03838116919091179091556097546098546099546040805193851684529184166020840152909216918101919091527f7e2c0d8beb1685de4b90e5d612dc3e1fcb8147b9dd5d8f5573eb699055a32db9906060015b60405180910390a150565b609c54600090819083106112685760405162461bcd60e51b8152600401610694906134fe565b6000848152609d60209081526040808320868452909152812054906112906201518083613771565b90508042106112a65760019350600092506112b7565b600093506112b44282613741565b92505b50509250929050565b6000818152609e6020526040812054609c54909190819081908190851015611425576000868152609d60209081526040808320888452909152812054609c805491965090879081106113145761131461356f565b90600052602060002090600702016040518060e001604052908160008201805461133d90613585565b80601f016020809104026020016040519081016040528092919081815260200182805461136990613585565b80156113b65780601f1061138b576101008083540402835291602001916113b6565b820191906000526020600020905b81548152906001019060200180831161139957829003601f168201915b5050505050815260200160018201548152602001600282015481526020016003820154815260200160048201548152602001600582015481526020016006820160009054906101000a900460ff1615151515815250509050806020015193508060400151925080606001519150505b91939590929450565b609b546000908190819060ff1680156114485750609a5442105b9250609a5491508261145b576000611469565b42609a546114699190613741565b9050909192565b611478611e80565b6114826000611f69565b565b609c5460009082106114a85760405162461bcd60e51b8152600401610694906134fe565b609b5460ff1680156114bb5750609a5442105b156114ec57609c82815481106114d3576114d361356f565b9060005260206000209060070201600501549050919050565b609c82815481106114ff576114ff61356f565b9060005260206000209060070201600401549050919050565b611520611e80565b609980546001600160a01b0319166001600160a01b0383811691821790925560975460985460408051928516835293166020820152918201527f7e2c0d8beb1685de4b90e5d612dc3e1fcb8147b9dd5d8f5573eb699055a32db990606001611237565b6060806060806060806000609c805490509050806001600160401b038111156115ae576115ae613018565b6040519080825280602002602001820160405280156115e157816020015b60608152602001906001900390816115cc5790505b509650806001600160401b038111156115fc576115fc613018565b604051908082528060200260200182016040528015611625578160200160208202803683370190505b509550806001600160401b0381111561164057611640613018565b604051908082528060200260200182016040528015611669578160200160208202803683370190505b509450806001600160401b0381111561168457611684613018565b6040519080825280602002602001820160405280156116ad578160200160208202803683370190505b509350806001600160401b038111156116c8576116c8613018565b6040519080825280602002602001820160405280156116f1578160200160208202803683370190505b509250806001600160401b0381111561170c5761170c613018565b604051908082528060200260200182016040528015611735578160200160208202803683370190505b50915060005b81811015611934576000609c82815481106117585761175861356f565b90600052602060002090600702016040518060e001604052908160008201805461178190613585565b80601f01602080910402602001604051908101604052809291908181526020018280546117ad90613585565b80156117fa5780601f106117cf576101008083540402835291602001916117fa565b820191906000526020600020905b8154815290600101906020018083116117dd57829003601f168201915b505050918352505060018201546020820152600282015460408201526003820154606082015260048201546080820152600582015460a082015260069091015460ff16151560c09091015280518a51919250908a908490811061185f5761185f61356f565b602002602001018190525080602001518883815181106118815761188161356f565b60200260200101818152505080604001518783815181106118a4576118a461356f565b60200260200101818152505080606001518683815181106118c7576118c761356f565b6020026020010181815250506118dc82611484565b8583815181106118ee576118ee61356f565b6020026020010181815250508060c001518483815181106119115761191161356f565b91151560209283029190910190910152508061192c81613728565b91505061173b565b5050909192939495565b611946611e80565b609b5460ff166119985760405162461bcd60e51b815260206004820152601d60248201527f446973636f756e7420706572696f6420616c726561647920656e6465640000006044820152606401610694565b609b805460ff191690556040517f7b77c0a626b0049ced3a27b058f3c0488685d6c7655e61edad24963a03ec51db90600090a1565b6119d5611eda565b609c5481106119f65760405162461bcd60e51b8152600401610694906134fe565b609c8181548110611a0957611a0961356f565b600091825260209091206006600790920201015460ff16611a615760405162461bcd60e51b81526020600482015260126024820152714d65616c206973206e6f742061637469766560701b6044820152606401610694565b611a6a82612c74565b611ab65760405162461bcd60e51b815260206004820152601a60248201527f4e6f7420746865207374616b6564206d696e6572206f776e65720000000000006044820152606401610694565b6000828152609d60209081526040808320848452909152902054611add6201518082613771565b421015611b3a5760405162461bcd60e51b815260206004820152602560248201527f32346820636f6f6c646f776e206e6f742070617373656420666f722074686973604482015264081b59585b60da1b6064820152608401610694565b6000611b4583611484565b90508015611bc1576097546001600160a01b0316611b6581333085612cfc565b604051630852cd8d60e31b8152600481018390526001600160a01b038216906342966c6890602401600060405180830381600087803b158015611ba757600080fd5b505af1158015611bbb573d6000803e3d6000fd5b50505050505b6000848152609d6020908152604080832086845282528083204290819055878452609e8352928190208690558051848152918201929092528491869133917fb3d5aeebf6e91c649147985cbb3793281f54229b264bb5b356e1a2a315a280bc910160405180910390a4609b5460ff168015611c3e5750609a544210155b15611c7757609b805460ff191690556040517f7b77c0a626b0049ced3a27b058f3c0488685d6c7655e61edad24963a03ec51db90600090a15b5050611c836001606555565b5050565b609c546060908190806001600160401b03811115611ca757611ca7613018565b604051908082528060200260200182016040528015611cd0578160200160208202803683370190505b509250806001600160401b03811115611ceb57611ceb613018565b604051908082528060200260200182016040528015611d14578160200160208202803683370190505b50915060005b81811015611e00576000858152609d6020908152604080832084845290915281205490611d4a6201518083613771565b9050804210611d9e576001868481518110611d6757611d6761356f565b6020026020010190151590811515815250506000858481518110611d8d57611d8d61356f565b602002602001018181525050611deb565b6000868481518110611db257611db261356f565b91151560209283029190910190910152611dcc4282613741565b858481518110611dde57611dde61356f565b6020026020010181815250505b50508080611df890613728565b915050611d1a565b5050915091565b611e0f611e80565b6001600160a01b038116611e745760405162461bcd60e51b815260206004820152602660248201527f4f776e61626c653a206e6577206f776e657220697320746865207a65726f206160448201526564647265737360d01b6064820152608401610694565b611e7d81611f69565b50565b6033546001600160a01b031633146114825760405162461bcd60e51b815260206004820181905260248201527f4f776e61626c653a2063616c6c6572206973206e6f7420746865206f776e65726044820152606401610694565b600260655403611f2c5760405162461bcd60e51b815260206004820152601f60248201527f5265656e7472616e637947756172643a207265656e7472616e742063616c6c006044820152606401610694565b6002606555565b6001606555565b600054610100900460ff16611f615760405162461bcd60e51b815260040161069490613784565b611482612d5c565b603380546001600160a01b038381166001600160a01b0319831681179093556040519116919082907f8be0079c531659141344cd1fd0a4f28419497f9722a3daafe3b4186f6b6457e090600090a35050565b600054610100900460ff16611fe25760405162461bcd60e51b815260040161069490613784565b611482612d8c565b6040805161012081018252600560e08201818152644170706c6560d81b61010084015282526020820152678ac7230489e80000918101919091526801a055690d9db80000606082015260006080820181905260a08201819052600160c08301819052609c80549182018155909152815160079091026000805160206137ff8339815191520190819061207c9082613607565b5060208281015160018084019190915560408085015160028501556060808601516003860155608080870151600487015560a080880151600588015560c0978801516006978801805491151560ff1990921691909117905583516101208101855260e0810197885265436f6666656560d01b6101008201529687526014958701959095526801158e460913d000009286019290925268022b1c8c1227a0000090850152673782dace9d90000090840152671bc16d674ec8000091830191909152918101829052609c80549283018155600052805190916007026000805160206137ff833981519152019081906121729082613607565b5060208281015160018084019190915560408085015160028501556060808601516003860155608080870151600487015560a080880151600588015560c0978801516006909701805497151560ff1990981697909717909655825161012081018452600860e08201908152670a6c2dcc8eed2c6d60c31b610100830152815260199581019590955268015af1d78b58c4000092850192909252680270801d946c94000090840152676124fee993bc0000908301526730927f74c9de000092820192909252918201819052609c80549182018155600052815160079091026000805160206137ff8339815191520190819061226c9082613607565b5060208281015160018084019190915560408085015160028501556060808601516003860155608080870151600487015560a08088015160058089019190915560c0988901516006909801805498151560ff199099169890981790975583516101208101855260e0810197885264467269657360d81b610100820152968752601b958701959095526801a055690d9db80000928601929092526802b5e3af16b188000090850152678ac7230489e8000090840152674563918244f4000091830191909152918101829052609c80549283018155600052805190916007026000805160206137ff833981519152019081906123669082613607565b5060208281015160018084019190915560408085015160028501556060808601516003860155608080870151600487015560a080880151600588015560c0978801516006978801805491151560ff1990921691909117905583516101208101855260e0810197885265213ab933b2b960d11b610100820152968752601e958701959095526801e5b8fa8fe2ac0000928601929092526802fb474098f67c00009085015267d02ab486cedc0000908401526768155a43676e000091830191909152918101829052609c80549283018155600052805190916007026000805160206137ff8339815191520190819061245c9082613607565b506020828101516001808401919091556040808501516002850155606080860151600386015560808087015160048088019190915560a080890151600589015560c0988901516006909801805498151560ff199099169890981790975583516101208101855260e081019182526343616b6560e01b61010082015290815260239581019590955268022b1c8c1227a0000092850192909252680340aad21b3b700000908401526801158e460913d0000090830152678ac7230489e8000092820192909252918201819052609c80549182018155600052815160079091026000805160206137ff833981519152019081906125569082613607565b5060208281015160018084019190915560408085015160028501556060808601516003860155608080870151600487015560a08088015160058089019190915560c0988901516006909801805498151560ff199099169890981790975583516101208101855260e081019788526450697a7a6160d81b610100820152968752602895870195909552680270801d946c940000928601929092526803860e639d8064000090850152680138400eca364a000090840152679c2007651b25000091830191909152918101829052609c80549283018155600052805190916007026000805160206137ff833981519152019081906126519082613607565b5060208281015160018084019190915560408085015160028501556060808601516003860155608080870151600487015560a08088015160058089019190915560c0988901516006909801805498151560ff199099169890981790975583516101208101855260e081019788526414d85b185960da1b610100820152968752602d958701959095526802b5e3af16b1880000928601929092526803cb71f51fc55800009085015268015af1d78b58c400009084015267ad78ebc5ac62000091830191909152918101829052609c80549283018155600052805190916007026000805160206137ff8339815191520190819061274c9082613607565b5060208281015160018381019190915560408085015160028501556060808601516003860155608080870151600487015560a080880151600588015560c0978801516006909701805460ff191697151597909717909655825161012081018452600760e08201818152664e6f6f646c657360c81b61010084015282526032968201969096526802fb474098f67c000093810193909352680410d586a20a4c00009183019190915268017da3a04c7b3e00009082015267bed1d0263d9f000093810193909352928201839052609c80549384018155600052815191926000805160206137ff8339815191529102019081906128469082613607565b5060208281015160018084019190915560408085015160028501556060808601516003860155608080870151600487015560a080880151600588015560c0978801516006909701805497151560ff1990981697909717909655825161012081018452600c60e082019081526b0467269656420536872696d760a41b6101008301528152603495810195909552680340aad21b3b700000928501929092526804563918244f400000908401526801a055690d9db800009083015267d02ab486cedc000092820192909252918201819052609c80549182018155600052815160079091026000805160206137ff833981519152019081906129459082613607565b506020828101516001808401919091556040808501516002850155606080860151600386015560808087015160048088019190915560a080890151600589015560c0988901516006909801805498151560ff199099169890981790975583516101208101855260e08101918252635374657760e01b6101008201529081526037958101959095526803cb71f51fc5580000928501929092526804e1003b28d9280000908401526801e5b8fa8fe2ac00009083015267f2dc7d47f156000092820192909252918201819052609c80549182018155600052815160079091026000805160206137ff83398151915201908190612a3f9082613607565b5060208281015160018084019190915560408085015160028501556060808601516003860155608080870151600487015560a08088015160058089019190915560c0988901516006909801805498151560ff199099169890981790975583516101208101855260e0810197885264537465616b60d81b610100820152968752603c958701959095526804563918244f4000009286019290925268056bc75e2d631000009085015268022b1c8c1227a00000908401526801158e460913d0000091830191909152918101829052609c80549283018155600052805190916007026000805160206137ff83398151915201908190612b3b9082613607565b5060208281015160018084019190915560408085015160028501556060808601516003860155608080870151600487015560a08088015160058089019190915560c0988901516006909801805498151560ff199099169890981790975583516101208101855260e081019788526444616e676f60d81b6101008201529687526041958701959095526804e1003b28d9280000928601929092526805f68e8131ecf80000908501526000908401819052918301829052928201839052609c805493840181559052805190916007026000805160206137ff83398151915201908190612c259082613607565b506020820151600182015560408201516002820155606082015160038201556080820151600482015560a0820151600582015560c0909101516006909101805460ff1916911515919091179055565b6098546040516305039d8360e31b8152336004820152602481018390526000916001600160a01b031690819063281cec1890604401602060405180830381865afa925050508015612ce2575060408051601f3d908101601f19168201909252612cdf91810190613754565b60015b612cef5750600092915050565b9392505050565b50919050565b604080516001600160a01b0385811660248301528416604482015260648082018490528251808303909101815260849091019091526020810180516001600160e01b03166323b872dd60e01b179052612d56908590612db3565b50505050565b600054610100900460ff16612d835760405162461bcd60e51b815260040161069490613784565b61148233611f69565b600054610100900460ff16611f335760405162461bcd60e51b815260040161069490613784565b6000612e08826040518060400160405280602081526020017f5361666545524332303a206c6f772d6c6576656c2063616c6c206661696c6564815250856001600160a01b0316612e889092919063ffffffff16565b9050805160001480612e29575080806020019051810190612e299190613754565b6108a65760405162461bcd60e51b815260206004820152602a60248201527f5361666545524332303a204552433230206f7065726174696f6e20646964206e6044820152691bdd081cdd58d8d9595960b21b6064820152608401610694565b6060612e978484600085612e9f565b949350505050565b606082471015612f005760405162461bcd60e51b815260206004820152602660248201527f416464726573733a20696e73756666696369656e742062616c616e636520666f6044820152651c8818d85b1b60d21b6064820152608401610694565b600080866001600160a01b03168587604051612f1c91906137cf565b60006040518083038185875af1925050503d8060008114612f59576040519150601f19603f3d011682016040523d82523d6000602084013e612f5e565b606091505b5091509150612f6f87838387612f7a565b979650505050505050565b60608315612fe9578251600003612fe2576001600160a01b0385163b612fe25760405162461bcd60e51b815260206004820152601d60248201527f416464726573733a2063616c6c20746f206e6f6e2d636f6e74726163740000006044820152606401610694565b5081612e97565b612e978383815115612ffe5781518083602001fd5b8060405162461bcd60e51b815260040161069491906137eb565b634e487b7160e01b600052604160045260246000fd5b600082601f83011261303f57600080fd5b81356001600160401b038082111561305957613059613018565b604051601f8301601f19908116603f0116810190828211818310171561308157613081613018565b8160405283815286602085880101111561309a57600080fd5b836020870160208301376000602085830101528094505050505092915050565b8015158114611e7d57600080fd5b600080600080600080600080610100898b0312156130e557600080fd5b8835975060208901356001600160401b0381111561310257600080fd5b61310e8b828c0161302e565b97505060408901359550606089013594506080890135935060a0890135925060c0890135915060e0890135613142816130ba565b809150509295985092959890939650565b6000806020838503121561316657600080fd5b82356001600160401b038082111561317d57600080fd5b818501915085601f83011261319157600080fd5b8135818111156131a057600080fd5b8660208260051b85010111156131b557600080fd5b60209290920196919550909350505050565b80356001600160a01b03811681146131de57600080fd5b919050565b600080604083850312156131f657600080fd5b6131ff836131c7565b915061320d602084016131c7565b90509250929050565b60008060008060008060c0878903121561322f57600080fd5b86356001600160401b0381111561324557600080fd5b61325189828a0161302e565b9960208901359950604089013598606081013598506080810135975060a0013595509350505050565b60006020828403121561328c57600080fd5b5035919050565b60005b838110156132ae578181015183820152602001613296565b50506000910152565b600081518084526132cf816020860160208601613293565b601f01601f19169290920160200192915050565b60e0815260006132f660e083018a6132b7565b60208301989098525060408101959095526060850193909352608084019190915260a0830152151560c090910152919050565b60008060006060848603121561333e57600080fd5b613347846131c7565b95602085013595506040909401359392505050565b60006020828403121561336e57600080fd5b612cef826131c7565b6000806040838503121561338a57600080fd5b50508035926020909101359150565b600081518084526020808501945080840160005b838110156133c9578151875295820195908201906001016133ad565b509495945050505050565b600081518084526020808501945080840160005b838110156133c95781511515875295820195908201906001016133e8565b600060c0820160c0835280895180835260e08501915060e08160051b86010192506020808c0160005b8381101561345d5760df1988870301855261344b8683516132b7565b9550938201939082019060010161342f565b5050858403818701525050506134738189613399565b905082810360408401526134878188613399565b9050828103606084015261349b8187613399565b905082810360808401526134af8186613399565b905082810360a08401526134c381856133d4565b9998505050505050505050565b6040815260006134e360408301856133d4565b82810360208401526134f58185613399565b95945050505050565b6020808252601390820152721359585b08191bd95cc81b9bdd08195e1a5cdd606a1b604082015260600190565b60208082526024908201527f446973636f756e746564207072696365206d757374206265203c3d206f7269676040820152631a5b985b60e21b606082015260800190565b634e487b7160e01b600052603260045260246000fd5b600181811c9082168061359957607f821691505b602082108103612cf657634e487b7160e01b600052602260045260246000fd5b601f8211156108a657600081815260208120601f850160051c810160208610156135e05750805b601f850160051c820191505b818110156135ff578281556001016135ec565b505050505050565b81516001600160401b0381111561362057613620613018565b6136348161362e8454613585565b846135b9565b602080601f83116001811461366957600084156136515750858301515b600019600386901b1c1916600185901b1785556135ff565b600085815260208120601f198616915b8281101561369857888601518255948401946001909101908401613679565b50858210156136b65787850151600019600388901b60f8161c191681555b5050505050600190811b01905550565b634e487b7160e01b600052601160045260246000fd5b80820281158282048414176136f3576136f36136c6565b92915050565b60808152600061370c60808301876132b7565b6020830195909552506040810192909252606090910152919050565b60006001820161373a5761373a6136c6565b5060010190565b818103818111156136f3576136f36136c6565b60006020828403121561376657600080fd5b8151612cef816130ba565b808201808211156136f3576136f36136c6565b6020808252602b908201527f496e697469616c697a61626c653a20636f6e7472616374206973206e6f74206960408201526a6e697469616c697a696e6760a81b606082015260800190565b600082516137e1818460208701613293565b9190910192915050565b602081526000612cef60208301846132b756feaf85b9071dfafeac1409d3f1d19bafc9bc7c37974cde8df0ee6168f0086e539ca26469706673582212201ac31f20fd091e259c465a311cca304bd66e7b6d250cfc3070022c5e3209ce2164736f6c63430008140033",
  "linkReferences": {},
  "deployedLinkReferences": {}
}