{
  "_format": "hh-sol-artifact-1",
  "contractName": "MiningExpeditionUpgradeableV2",
  "sourceName": "contracts/upgradeable/MiningExpeditionUpgradeableV2.sol",
  "abi": [
    {
      "anonymous": false,
      "inputs": [
        {
          "indexed": false,
          "internalType": "address",
          "name": "inGameBoost",
          "type": "address"
        },
        {
          "indexed": false,
          "internalType": "address",
          "name": "giveawayBoost",
          "type": "address"
        },
        {
          "indexed": false,
          "internalType": "address",
          "name": "lifetimeBoost",
          "type": "address"
        }
      ],
      "name": "BoostContractsUpdated",
      "type": "event"
    },
    {
      "anonymous": false,
      "inputs": [
        {
          "indexed": true,
          "internalType": "address",
          "name": "owner",
          "type": "address"
        },
        {
          "indexed": true,
          "internalType": "uint256",
          "name": "minerId",
          "type": "uint256"
        },
        {
          "indexed": false,
          "internalType": "bool",
          "name": "successful",
          "type": "bool"
        },
        {
          "indexed": false,
          "internalType": "uint256",
          "name": "baseReward",
          "type": "uint256"
        },
        {
          "indexed": false,
          "internalType": "uint256",
          "name": "boostedReward",
          "type": "uint256"
        },
        {
          "indexed": false,
          "internalType": "uint256",
          "name": "boostPercentage",
          "type": "uint256"
        }
      ],
      "name": "ExpeditionCompleted",
      "type": "event"
    },
    {
      "anonymous": false,
      "inputs": [
        {
          "indexed": true,
          "internalType": "address",
          "name": "owner",
          "type": "address"
        },
        {
          "indexed": true,
          "internalType": "uint256",
          "name": "minerId",
          "type": "uint256"
        },
        {
          "indexed": false,
          "internalType": "uint256",
          "name": "reward",
          "type": "uint256"
        }
      ],
      "name": "ExpeditionRewardCalculated",
      "type": "event"
    },
    {
      "anonymous": false,
      "inputs": [
        {
          "indexed": true,
          "internalType": "address",
          "name": "owner",
          "type": "address"
        },
        {
          "indexed": true,
          "internalType": "uint256",
          "name": "minerId",
          "type": "uint256"
        },
        {
          "indexed": false,
          "internalType": "uint256",
          "name": "startTime",
          "type": "uint256"
        },
        {
          "indexed": false,
          "internalType": "uint256",
          "name": "endTime",
          "type": "uint256"
        }
      ],
      "name": "ExpeditionStarted",
      "type": "event"
    },
    {
      "anonymous": false,
      "inputs": [
        {
          "indexed": false,
          "internalType": "uint256",
          "name": "newExpeditionTime",
          "type": "uint256"
        }
      ],
      "name": "ExpeditionTimeUpdated",
      "type": "event"
    },
    {
      "anonymous": false,
      "inputs": [
        {
          "indexed": true,
          "internalType": "address",
          "name": "oldAddress",
          "type": "address"
        },
        {
          "indexed": true,
          "internalType": "address",
          "name": "newAddress",
          "type": "address"
        }
      ],
      "name": "FoodSystemAddressUpdated",
      "type": "event"
    },
    {
      "anonymous": false,
      "inputs": [
        {
          "indexed": false,
          "internalType": "uint8",
          "name": "version",
          "type": "uint8"
        }
      ],
      "name": "Initialized",
      "type": "event"
    },
    {
      "anonymous": false,
      "inputs": [
        {
          "indexed": true,
          "internalType": "address",
          "name": "previousOwner",
          "type": "address"
        },
        {
          "indexed": true,
          "internalType": "address",
          "name": "newOwner",
          "type": "address"
        }
      ],
      "name": "OwnershipTransferred",
      "type": "event"
    },
    {
      "inputs": [],
      "name": "BOOST_24H_PERCENTAGE",
      "outputs": [
        {
          "internalType": "uint256",
          "name": "",
          "type": "uint256"
        }
      ],
      "stateMutability": "view",
      "type": "function"
    },
    {
      "inputs": [],
      "name": "BOOST_LIFETIME_PERCENTAGE",
      "outputs": [
        {
          "internalType": "uint256",
          "name": "",
          "type": "uint256"
        }
      ],
      "stateMutability": "view",
      "type": "function"
    },
    {
      "inputs": [],
      "name": "MAX_BOOST_PERCENTAGE",
      "outputs": [
        {
          "internalType": "uint256",
          "name": "",
          "type": "uint256"
        }
      ],
      "stateMutability": "view",
      "type": "function"
    },
    {
      "inputs": [],
      "name": "MINING_COOLDOWN",
      "outputs": [
        {
          "internalType": "uint256",
          "name": "",
          "type": "uint256"
        }
      ],
      "stateMutability": "view",
      "type": "function"
    },
    {
      "inputs": [
        {
          "internalType": "uint256",
          "name": "minerId",
          "type": "uint256"
        }
      ],
      "name": "completeExpedition",
      "outputs": [],
      "stateMutability": "nonpayable",
      "type": "function"
    },
    {
      "inputs": [
        {
          "internalType": "uint256[]",
          "name": "minerIds",
          "type": "uint256[]"
        }
      ],
      "name": "completeExpeditions",
      "outputs": [],
      "stateMutability": "nonpayable",
      "type": "function"
    },
    {
      "inputs": [
        {
          "internalType": "uint256",
          "name": "",
          "type": "uint256"
        }
      ],
      "name": "expeditions",
      "outputs": [
        {
          "internalType": "uint256",
          "name": "startTime",
          "type": "uint256"
        },
        {
          "internalType": "uint256",
          "name": "endTime",
          "type": "uint256"
        },
        {
          "internalType": "bool",
          "name": "completed",
          "type": "bool"
        },
        {
          "internalType": "bool",
          "name": "successful",
          "type": "bool"
        },
        {
          "internalType": "uint256",
          "name": "baseReward",
          "type": "uint256"
        },
        {
          "internalType": "uint256",
          "name": "boostedReward",
          "type": "uint256"
        },
        {
          "internalType": "uint256",
          "name": "boostPercentage",
          "type": "uint256"
        }
      ],
      "stateMutability": "view",
      "type": "function"
    },
    {
      "inputs": [],
      "name": "foodSystemAddress",
      "outputs": [
        {
          "internalType": "address",
          "name": "",
          "type": "address"
        }
      ],
      "stateMutability": "view",
      "type": "function"
    },
    {
      "inputs": [],
      "name": "gemTokenAddress",
      "outputs": [
        {
          "internalType": "address",
          "name": "",
          "type": "address"
        }
      ],
      "stateMutability": "view",
      "type": "function"
    },
    {
      "inputs": [
        {
          "internalType": "uint256",
          "name": "minerId",
          "type": "uint256"
        }
      ],
      "name": "getExpeditionStatus",
      "outputs": [
        {
          "components": [
            {
              "internalType": "uint256",
              "name": "startTime",
              "type": "uint256"
            },
            {
              "internalType": "uint256",
              "name": "endTime",
              "type": "uint256"
            },
            {
              "internalType": "bool",
              "name": "completed",
              "type": "bool"
            },
            {
              "internalType": "bool",
              "name": "successful",
              "type": "bool"
            },
            {
              "internalType": "uint256",
              "name": "baseReward",
              "type": "uint256"
            },
            {
              "internalType": "uint256",
              "name": "boostedReward",
              "type": "uint256"
            },
            {
              "internalType": "uint256",
              "name": "boostPercentage",
              "type": "uint256"
            }
          ],
          "internalType": "struct MiningExpeditionUpgradeable.Expedition",
          "name": "",
          "type": "tuple"
        }
      ],
      "stateMutability": "view",
      "type": "function"
    },
    {
      "inputs": [
        {
          "internalType": "uint256",
          "name": "minerId",
          "type": "uint256"
        }
      ],
      "name": "getMinerStatistics",
      "outputs": [
        {
          "components": [
            {
              "internalType": "uint256",
              "name": "totalExpeditions",
              "type": "uint256"
            },
            {
              "internalType": "uint256",
              "name": "successfulExpeditions",
              "type": "uint256"
            },
            {
              "internalType": "uint256",
              "name": "totalRewards",
              "type": "uint256"
            },
            {
              "internalType": "uint256",
              "name": "totalBoostRewards",
              "type": "uint256"
            }
          ],
          "internalType": "struct MiningExpeditionUpgradeable.MinerStats",
          "name": "",
          "type": "tuple"
        }
      ],
      "stateMutability": "view",
      "type": "function"
    },
    {
      "inputs": [
        {
          "internalType": "address",
          "name": "user",
          "type": "address"
        }
      ],
      "name": "getUserBoosts",
      "outputs": [
        {
          "internalType": "bool",
          "name": "hasLifetimeBoost",
          "type": "bool"
        },
        {
          "internalType": "bool",
          "name": "hasInGameBoost24h",
          "type": "bool"
        },
        {
          "internalType": "bool",
          "name": "hasGiveawayBoost24h",
          "type": "bool"
        },
        {
          "internalType": "uint256",
          "name": "totalBoostPercentage",
          "type": "uint256"
        }
      ],
      "stateMutability": "view",
      "type": "function"
    },
    {
      "inputs": [],
      "name": "giveawayBoost24hAddress",
      "outputs": [
        {
          "internalType": "address",
          "name": "",
          "type": "address"
        }
      ],
      "stateMutability": "view",
      "type": "function"
    },
    {
      "inputs": [],
      "name": "inGameBoost24hAddress",
      "outputs": [
        {
          "internalType": "address",
          "name": "",
          "type": "address"
        }
      ],
      "stateMutability": "view",
      "type": "function"
    },
    {
      "inputs": [
        {
          "internalType": "address",
          "name": "_gemTokenAddress",
          "type": "address"
        },
        {
          "internalType": "address",
          "name": "_stakingContractAddress",
          "type": "address"
        },
        {
          "internalType": "address",
          "name": "_foodSystemAddress",
          "type": "address"
        }
      ],
      "name": "initialize",
      "outputs": [],
      "stateMutability": "nonpayable",
      "type": "function"
    },
    {
      "inputs": [],
      "name": "lifetimeBoostAddress",
      "outputs": [
        {
          "internalType": "address",
          "name": "",
          "type": "address"
        }
      ],
      "stateMutability": "view",
      "type": "function"
    },
    {
      "inputs": [
        {
          "internalType": "uint256",
          "name": "",
          "type": "uint256"
        }
      ],
      "name": "minerStats",
      "outputs": [
        {
          "internalType": "uint256",
          "name": "totalExpeditions",
          "type": "uint256"
        },
        {
          "internalType": "uint256",
          "name": "successfulExpeditions",
          "type": "uint256"
        },
        {
          "internalType": "uint256",
          "name": "totalRewards",
          "type": "uint256"
        },
        {
          "internalType": "uint256",
          "name": "totalBoostRewards",
          "type": "uint256"
        }
      ],
      "stateMutability": "view",
      "type": "function"
    },
    {
      "inputs": [],
      "name": "owner",
      "outputs": [
        {
          "internalType": "address",
          "name": "",
          "type": "address"
        }
      ],
      "stateMutability": "view",
      "type": "function"
    },
    {
      "inputs": [],
      "name": "renounceOwnership",
      "outputs": [],
      "stateMutability": "nonpayable",
      "type": "function"
    },
    {
      "inputs": [
        {
          "internalType": "address",
          "name": "_inGameBoost24h",
          "type": "address"
        },
        {
          "internalType": "address",
          "name": "_giveawayBoost24h",
          "type": "address"
        },
        {
          "internalType": "address",
          "name": "_lifetimeBoost",
          "type": "address"
        }
      ],
      "name": "setBoostContracts",
      "outputs": [],
      "stateMutability": "nonpayable",
      "type": "function"
    },
    {
      "inputs": [
        {
          "internalType": "address",
          "name": "_newFoodSystemAddress",
          "type": "address"
        }
      ],
      "name": "setFoodSystemAddress",
      "outputs": [],
      "stateMutability": "nonpayable",
      "type": "function"
    },
    {
      "inputs": [],
      "name": "stakingContractAddress",
      "outputs": [
        {
          "internalType": "address",
          "name": "",
          "type": "address"
        }
      ],
      "stateMutability": "view",
      "type": "function"
    },
    {
      "inputs": [
        {
          "internalType": "uint256",
          "name": "minerId",
          "type": "uint256"
        }
      ],
      "name": "startExpedition",
      "outputs": [],
      "stateMutability": "nonpayable",
      "type": "function"
    },
    {
      "inputs": [
        {
          "internalType": "uint256[]",
          "name": "minerIds",
          "type": "uint256[]"
        }
      ],
      "name": "startExpeditions",
      "outputs": [],
      "stateMutability": "nonpayable",
      "type": "function"
    },
    {
      "inputs": [
        {
          "internalType": "address",
          "name": "newOwner",
          "type": "address"
        }
      ],
      "name": "transferOwnership",
      "outputs": [],
      "stateMutability": "nonpayable",
      "type": "function"
    },
    {
      "inputs": [
        {
          "internalType": "uint256",
          "name": "_newTime",
          "type": "uint256"
        }
      ],
      "name": "updateExpeditionTime",
      "outputs": [],
      "stateMutability": "nonpayable",
      "type": "function"
    },
    {
      "stateMutability": "payable",
      "type": "receive"
    }
  ],
  "bytecode": "0x608060405234801561001057600080fd5b50611c78806100206000396000f3fe6080604052600436106101855760003560e01c8063768a8fd8116100d1578063c0c53b8b1161008a578063ded4410411610064578063ded44104146105c8578063deeda48b146105de578063f2fde38b146105f3578063fa3fbd5a1461061357600080fd5b8063c0c53b8b14610568578063c26eb18d14610588578063d3c01a83146105a857600080fd5b8063768a8fd8146104b557806381525f5a146104ca5780638da5cb5b146104ea578063ad36cc8414610508578063bc1a31b014610528578063c01ab6451461054857600080fd5b806349fe9b1a1161013e57806359ad71401161011857806359ad714014610415578063622319ae1461045d5780636a245fb11461047d578063715018a6146104a057600080fd5b806349fe9b1a1461035b5780635098bf691461037b57806356370d2b146103f557600080fd5b806303256a0e1461019157806312c5b2ed146101b357806314a32750146101d3578063235856ea1461026e5780633535f48b146102d057806335b6c6951461030857600080fd5b3661018c57005b600080fd5b34801561019d57600080fd5b506101b16101ac366004611996565b610633565b005b3480156101bf57600080fd5b506101b16101ce366004611996565b610688565b3480156101df57600080fd5b5061022e6101ee366004611a0b565b609d602052600090815260409020805460018201546002830154600384015460048501546005909501549394929360ff8084169461010090940416929087565b604080519788526020880196909652931515948601949094529015156060850152608084015260a083019190915260c082015260e0015b60405180910390f35b34801561027a57600080fd5b506102b0610289366004611a0b565b609e6020526000908152604090208054600182015460028301546003909301549192909184565b604080519485526020850193909352918301526060820152608001610265565b3480156102dc57600080fd5b506098546102f0906001600160a01b031681565b6040516001600160a01b039091168152602001610265565b34801561031457600080fd5b50610328610323366004611a0b565b610715565b60405161026591908151815260208083015190820152604080830151908201526060918201519181019190915260800190565b34801561036757600080fd5b506099546102f0906001600160a01b031681565b34801561038757600080fd5b5061039b610396366004611a0b565b610785565b6040516102659190600060e08201905082518252602083015160208301526040830151151560408301526060830151151560608301526080830151608083015260a083015160a083015260c083015160c083015292915050565b34801561040157600080fd5b506101b1610410366004611a39565b610838565b34801561042157600080fd5b50610435610430366004611a84565b6108c4565b6040805194151585529215156020850152901515918301919091526060820152608001610265565b34801561046957600080fd5b50609b546102f0906001600160a01b031681565b34801561048957600080fd5b50610492601481565b604051908152602001610265565b3480156104ac57600080fd5b506101b1610a62565b3480156104c157600080fd5b50610492600a81565b3480156104d657600080fd5b50609c546102f0906001600160a01b031681565b3480156104f657600080fd5b506033546001600160a01b03166102f0565b34801561051457600080fd5b506101b1610523366004611a0b565b610a76565b34801561053457600080fd5b506097546102f0906001600160a01b031681565b34801561055457600080fd5b506101b1610563366004611a0b565b610a94565b34801561057457600080fd5b506101b1610583366004611a39565b610ad7565b34801561059457600080fd5b506101b16105a3366004611a0b565b610c44565b3480156105b457600080fd5b50609a546102f0906001600160a01b031681565b3480156105d457600080fd5b50610492609f5481565b3480156105ea57600080fd5b50610492601e81565b3480156105ff57600080fd5b506101b161060e366004611a84565b610c55565b34801561061f57600080fd5b506101b161062e366004611a84565b610ccb565b61063b610d86565b60005b818110156106795761066783838381811061065b5761065b611aa1565b90506020020135610ddf565b8061067181611acd565b91505061063e565b506106846001606555565b5050565b610690610d86565b60005b818110156106795760008383838181106106af576106af611aa1565b602090810292909201356000818152609d909352604090922080549293509115801591506106e25750600281015460ff16155b80156106f2575080600101544210155b15610700576107008261104b565b5050808061070d90611acd565b915050610693565b6107406040518060800160405280600081526020016000815260200160008152602001600081525090565b506000908152609e6020908152604091829020825160808101845281548152600182015492810192909252600281015492820192909252600390910154606082015290565b6107c96040518060e0016040528060008152602001600081526020016000151581526020016000151581526020016000815260200160008152602001600081525090565b506000908152609d6020908152604091829020825160e08101845281548152600182015492810192909252600281015460ff80821615159484019490945261010090049092161515606082015260038201546080820152600482015460a082015260059091015460c082015290565b610840611460565b609a80546001600160a01b038581166001600160a01b03199283168117909355609b80548683169084168117909155609c8054928616929093168217909255604080519384526020840192909252908201527fafcb9bb9e87be9e8ba8aaa0cf62f02cf453db095c4315e427478567ebfb62da89060600160405180910390a1505050565b609c546000908190819081906001600160a01b03161561094e57609c5460405163379b8f7f60e11b81526001600160a01b03878116600483015290911690636f371efe90602401602060405180830381865afa925050508015610944575060408051601f3d908101601f1916820190925261094191810190611ae6565b60015b1561094e57151593505b609a546001600160a01b0316156109cf57609a5460405163379b8f7f60e11b81526001600160a01b03878116600483015290911690636f371efe90602401602060405180830381865afa9250505080156109c5575060408051601f3d908101601f191682019092526109c291810190611ae6565b60015b156109cf57151592505b609b546001600160a01b031615610a5057609b5460405163379b8f7f60e11b81526001600160a01b03878116600483015290911690636f371efe90602401602060405180830381865afa925050508015610a46575060408051601f3d908101601f19168201909252610a4391810190611ae6565b60015b15610a5057151591505b610a59856114ba565b90509193509193565b610a6a611460565b610a74600061169c565b565b610a7e610d86565b610a878161104b565b610a916001606555565b50565b610a9c611460565b609f8190556040518181527f1c98c20eada30aae86e4fca76430c42e94179ffb6c94e6dd852a32df1914fd259060200160405180910390a150565b600054610100900460ff1615808015610af75750600054600160ff909116105b80610b115750303b158015610b11575060005460ff166001145b610b795760405162461bcd60e51b815260206004820152602e60248201527f496e697469616c697a61626c653a20636f6e747261637420697320616c72656160448201526d191e481a5b9a5d1a585b1a5e995960921b60648201526084015b60405180910390fd5b6000805460ff191660011790558015610b9c576000805461ff0019166101001790555b610ba46116ee565b610bad3361169c565b610bb561171d565b609780546001600160a01b038087166001600160a01b031992831617909255609880548684169083161790556099805492851692909116919091179055612a30609f558015610c3e576000805461ff0019169055604051600181527f7f26b83ff96e1f2b6a682f133852f6798a09c465da95921460cefb38474024989060200160405180910390a15b50505050565b610c4c610d86565b610a8781610ddf565b610c5d611460565b6001600160a01b038116610cc25760405162461bcd60e51b815260206004820152602660248201527f4f776e61626c653a206e6577206f776e657220697320746865207a65726f206160448201526564647265737360d01b6064820152608401610b70565b610a918161169c565b610cd3611460565b6001600160a01b038116610d345760405162461bcd60e51b815260206004820152602260248201527f466f6f642073797374656d20616464726573732063616e6e6f74206265207a65604482015261726f60f01b6064820152608401610b70565b609980546001600160a01b038381166001600160a01b0319831681179093556040519116919082907f856f4e5938ef36bff6fa5777e710ec0b0480f601d773ab425fcf0acf8cbf18fd90600090a35050565b600260655403610dd85760405162461bcd60e51b815260206004820152601f60248201527f5265656e7472616e637947756172643a207265656e7472616e742063616c6c006044820152606401610b70565b6002606555565b610de88161174c565b610e345760405162461bcd60e51b815260206004820152601a60248201527f4e6f7420746865207374616b6564206d696e6572206f776e65720000000000006044820152606401610b70565b610e3d816117e0565b15610e8a5760405162461bcd60e51b815260206004820152601b60248201527f4d696e657220616c7265616479206f6e2065787065646974696f6e00000000006044820152606401610b70565b6000818152609d6020526040902060018101541580610eba5750609f548160010154610eb69190611aff565b4210155b610f065760405162461bcd60e51b815260206004820152601c60248201527f4d696e696e6720636f6f6c646f776e206e6f742066696e6973686564000000006044820152606401610b70565b60995460405163308c0c9d60e11b8152600481018490526000916001600160a01b031690636118193a9060240160a060405180830381865afa158015610f50573d6000803e3d6000fd5b505050506040513d601f19601f82011682018060405250810190610f749190611b12565b50505091505060008111610fc05760405162461bcd60e51b815260206004820152601360248201527226b4b732b9103430b9903737ba1032b0ba32b760691b6044820152606401610b70565b42808355609f54610fd091611aff565b6001830181905560028301805461ffff191690556000600384018190556004840181905560058401558254604051859233927fea781cbf0fa27a33f5b2f687dc3e7c5bf9991f9c5396a0592fa923588a169429926110379290918252602082015260400190565b60405180910390a3505050565b6001606555565b6110548161174c565b6110a05760405162461bcd60e51b815260206004820152601a60248201527f4e6f7420746865207374616b6564206d696e6572206f776e65720000000000006044820152606401610b70565b6000818152609d602052604090208054158015906110c35750600281015460ff16155b61110f5760405162461bcd60e51b815260206004820152601760248201527f4d696e6572206e6f74206f6e2065787065646974696f6e0000000000000000006044820152606401610b70565b80600101544210156111635760405162461bcd60e51b815260206004820152601860248201527f45787065646974696f6e206e6f742079657420656e64656400000000000000006044820152606401610b70565b60995460405163308c0c9d60e11b815260048101849052600091829182916001600160a01b031690636118193a9060240160a060405180830381865afa1580156111b1573d6000803e3d6000fd5b505050506040513d601f19601f820116820180604052508101906111d59190611b12565b945094509450505060006111e884611829565b90506000806000831561129d576111ff8686611893565b925061120a336114ba565b839250905080156112385760646112218285611b52565b61122b9190611b7f565b6112359084611aff565b91505b6098546040516365f8129560e01b8152336004820152602481018490526001600160a01b03909116906365f8129590604401600060405180830381600087803b15801561128457600080fd5b505af1158015611298573d6000803e3d6000fd5b505050505b6002880180548515156101000261ffff199091161760011790556003880183905560048801829055600588018190556000898152609e602052604081208054916112e683611acd565b91905055508315611372576000898152609e6020526040812060010180549161130e83611acd565b90915550506000898152609e602052604081206002018054849290611334908490611aff565b9091555050828211156113725761134b8383611b93565b60008a8152609e60205260408120600301805490919061136c908490611aff565b90915550505b60995460405163168eb23760e11b8152600481018b90526001600160a01b0390911690632d1d646e90602401600060405180830381600087803b1580156113b857600080fd5b505af11580156113cc573d6000803e3d6000fd5b50506040518481528b92503391507f92b1e8e81e02f41a22dcb1ee106a92bd8c672a8a35fe746c906d15f3dda46c819060200160405180910390a36040805185151581526020810185905290810183905260608101829052899033907fc5f6f79d23cf2954c7fa6b849bc7555e061b7475f3ff233862f57eb7148c60c09060800160405180910390a3505050505050505050565b6033546001600160a01b03163314610a745760405162461bcd60e51b815260206004820181905260248201527f4f776e61626c653a2063616c6c6572206973206e6f7420746865206f776e65726044820152606401610b70565b609c5460009081906001600160a01b03161561155157609c5460405163379b8f7f60e11b81526001600160a01b03858116600483015290911690636f371efe90602401602060405180830381865afa925050508015611536575060408051601f3d908101601f1916820190925261153391810190611ae6565b60015b1561155157801561154f5761154c601483611aff565b91505b505b6000609a546001600160a01b0316156115e957609a5460405163379b8f7f60e11b81526001600160a01b03868116600483015290911690636f371efe90602401602060405180830381865afa9250505080156115ca575060408051601f3d908101601f191682019092526115c791810190611ae6565b60015b156115e95780156115e7576115e0600a84611aff565b9250600191505b505b801580156116015750609b546001600160a01b031615155b1561168757609b5460405163379b8f7f60e11b81526001600160a01b03868116600483015290911690636f371efe90602401602060405180830381865afa92505050801561166c575060408051601f3d908101601f1916820190925261166991810190611ae6565b60015b1561168757801561168557611682600a84611aff565b92505b505b601e82111561169557601e91505b5092915050565b603380546001600160a01b038381166001600160a01b0319831681179093556040519116919082907f8be0079c531659141344cd1fd0a4f28419497f9722a3daafe3b4186f6b6457e090600090a35050565b600054610100900460ff166117155760405162461bcd60e51b8152600401610b7090611ba6565b610a7461193f565b600054610100900460ff166117445760405162461bcd60e51b8152600401610b7090611ba6565b610a7461196f565b609854604051633947bf5960e01b815260048101839052600091829182916001600160a01b031690633947bf5990602401606060405180830381865afa15801561179a573d6000803e3d6000fd5b505050506040513d601f19601f820116820180604052508101906117be9190611bf1565b92505091508080156117d857506001600160a01b03821633145b949350505050565b6000818152609d60205260408120805415801590611802575060008160010154115b80156118115750806001015442105b80156118225750600281015460ff16155b9392505050565b600080606442443360405160200161186693929190928352602083019190915260601b6bffffffffffffffffffffffff1916604082015260540190565b6040516020818303038152906040528051906020012060001c6118899190611c2e565b9290921092915050565b60008183036118a3575081611939565b60006118af8484611b93565b905060006118be826001611aff565b42443360405160200161190593929190928352602083019190915260601b6bffffffffffffffffffffffff19166040820152651c995dd85c9960d21b6054820152605a0190565b6040516020818303038152906040528051906020012060001c6119289190611c2e565b90506119348186611aff565b925050505b92915050565b600054610100900460ff166119665760405162461bcd60e51b8152600401610b7090611ba6565b610a743361169c565b600054610100900460ff166110445760405162461bcd60e51b8152600401610b7090611ba6565b600080602083850312156119a957600080fd5b823567ffffffffffffffff808211156119c157600080fd5b818501915085601f8301126119d557600080fd5b8135818111156119e457600080fd5b8660208260051b85010111156119f957600080fd5b60209290920196919550909350505050565b600060208284031215611a1d57600080fd5b5035919050565b6001600160a01b0381168114610a9157600080fd5b600080600060608486031215611a4e57600080fd5b8335611a5981611a24565b92506020840135611a6981611a24565b91506040840135611a7981611a24565b809150509250925092565b600060208284031215611a9657600080fd5b813561182281611a24565b634e487b7160e01b600052603260045260246000fd5b634e487b7160e01b600052601160045260246000fd5b600060018201611adf57611adf611ab7565b5060010190565b600060208284031215611af857600080fd5b5051919050565b8082018082111561193957611939611ab7565b600080600080600060a08688031215611b2a57600080fd5b5050835160208501516040860151606087015160809097015192989197509594509092509050565b808202811582820484141761193957611939611ab7565b634e487b7160e01b600052601260045260246000fd5b600082611b8e57611b8e611b69565b500490565b8181038181111561193957611939611ab7565b6020808252602b908201527f496e697469616c697a61626c653a20636f6e7472616374206973206e6f74206960408201526a6e697469616c697a696e6760a81b606082015260800190565b600080600060608486031215611c0657600080fd5b8351611c1181611a24565b6020850151604086015191945092508015158114611a7957600080fd5b600082611c3d57611c3d611b69565b50069056fea2646970667358221220f387bfa0485d138bd17615dc3cc1460a553d05e661910922db6a477a02a306b064736f6c63430008140033",
  "linkReferences": {},
  "deployedLinkReferences": {}
}